:020000040000FA
:020000000528D1
:100008000900622056200515851C39280330A000F8
:100018006F202408F5002508F6004830F900033061
:10002800FA009720F009701C38287030A8001730A3
:10003800A900FF30A200A300F901FA012808F50081
:100048002908F600A62070183828A20A0319A30A5E
:10005800D0202208F5002308F6002808F90029080E
:10006800FA00A620701829284B28FF30A200A30008
:10007800A20A0319A30ADC202208F5002308F600C7
:100088002830F9002330FA00A62070183C280728E9
:1000980063004C280530F000F00B50280000F50BE9
:1000A8004E280800831605118514851505140516B4
:1000B8008312A201A301A801A901080070308316C8
:1000C8008F0483121F109F1383169F01073083121A
:1000D8009900850108009F1783169F018312200A43
:1000E800A100031483169F0D8312A10B7628831693
:1000F8009F121F1683121F119F1120181F15A01879
:100108009F151F140230F5004E209F149F188A284F
:100118001F1083169F011E088312A400A5011E0844
:10012800A5009F130800F00176087A02031C080056
:100138007A087602031CA4287908750203180800B7
:10014800F0090800F001F61FC028FA1BAD28F009D5
:1001580008007509F7007609F800F70A0319F80A84
:100168007909F5007A09F600F50A0319F60A7708FD
:10017800F9007808FA00C228FA1B080076087A0203
:10018800031C08007A087602031CCE287908750239
:1001980003180800F009080005152230F000F00BDC
:1001A800D328000005112530F000F00BD9280800ED
:1001B80005153C30F000F00BDF2805110C30F0007D
:0601C800F00BE428080022
:02400E00D43F9D
:00000001FF
